{
  "contractName": "records",
  "abi": [
    {
      "anonymous": false,
      "inputs": [
        {
          "indexed": false,
          "internalType": "string",
          "name": "operation",
          "type": "string"
        },
        {
          "indexed": false,
          "internalType": "uint256",
          "name": "gasUsed",
          "type": "uint256"
        },
        {
          "indexed": false,
          "internalType": "uint256",
          "name": "timestamp",
          "type": "uint256"
        }
      ],
      "name": "GasUsed",
      "type": "event"
    },
    {
      "anonymous": false,
      "inputs": [
        {
          "indexed": true,
          "internalType": "address",
          "name": "patientAddr",
          "type": "address"
        },
        {
          "indexed": true,
          "internalType": "address",
          "name": "user",
          "type": "address"
        },
        {
          "indexed": false,
          "internalType": "uint256",
          "name": "timestamp",
          "type": "uint256"
        }
      ],
      "name": "PatientAccessed",
      "type": "event"
    },
    {
      "anonymous": false,
      "inputs": [
        {
          "indexed": true,
          "internalType": "address",
          "name": "patientAddr",
          "type": "address"
        },
        {
          "indexed": true,
          "internalType": "address",
          "name": "user",
          "type": "address"
        },
        {
          "indexed": false,
          "internalType": "uint256",
          "name": "timestamp",
          "type": "uint256"
        }
      ],
      "name": "PatientModified",
      "type": "event"
    },
    {
      "anonymous": false,
      "inputs": [
        {
          "indexed": false,
          "internalType": "uint256",
          "name": "storageSize",
          "type": "uint256"
        },
        {
          "indexed": false,
          "internalType": "uint256",
          "name": "timestamp",
          "type": "uint256"
        }
      ],
      "name": "StorageUsed",
      "type": "event"
    },
    {
      "inputs": [],
      "name": "creditPool",
      "outputs": [
        {
          "internalType": "uint256",
          "name": "",
          "type": "uint256"
        }
      ],
      "stateMutability": "view",
      "type": "function",
      "constant": true
    },
    {
      "inputs": [
        {
          "internalType": "uint256",
          "name": "",
          "type": "uint256"
        }
      ],
      "name": "patientList",
      "outputs": [
        {
          "internalType": "address",
          "name": "",
          "type": "address"
        }
      ],
      "stateMutability": "view",
      "type": "function",
      "constant": true
    },
    {
      "inputs": [
        {
          "internalType": "address",
          "name": "",
          "type": "address"
        }
      ],
      "name": "patients",
      "outputs": [
        {
          "internalType": "string",
          "name": "name",
          "type": "string"
        },
        {
          "internalType": "uint256",
          "name": "age",
          "type": "uint256"
        }
      ],
      "stateMutability": "view",
      "type": "function",
      "constant": true
    },
    {
      "inputs": [
        {
          "internalType": "address",
          "name": "",
          "type": "address"
        }
      ],
      "name": "userRoles",
      "outputs": [
        {
          "internalType": "enum records.Role",
          "name": "",
          "type": "uint8"
        }
      ],
      "stateMutability": "view",
      "type": "function",
      "constant": true
    },
    {
      "inputs": [
        {
          "internalType": "string",
          "name": "_name",
          "type": "string"
        },
        {
          "internalType": "uint256",
          "name": "_age",
          "type": "uint256"
        }
      ],
      "name": "addPatient",
      "outputs": [],
      "stateMutability": "payable",
      "type": "function",
      "payable": true
    },
    {
      "inputs": [
        {
          "internalType": "string",
          "name": "_patientName",
          "type": "string"
        },
        {
          "internalType": "string",
          "name": "_newTreatment",
          "type": "string"
        },
        {
          "internalType": "string",
          "name": "_newTreatmentDate",
          "type": "string"
        }
      ],
      "name": "addNewTreatment",
      "outputs": [],
      "stateMutability": "nonpayable",
      "type": "function"
    },
    {
      "inputs": [
        {
          "internalType": "string",
          "name": "_name",
          "type": "string"
        }
      ],
      "name": "getPatient",
      "outputs": [
        {
          "internalType": "string",
          "name": "",
          "type": "string"
        },
        {
          "internalType": "string[]",
          "name": "",
          "type": "string[]"
        },
        {
          "internalType": "string[]",
          "name": "",
          "type": "string[]"
        },
        {
          "internalType": "uint256",
          "name": "",
          "type": "uint256"
        }
      ],
      "stateMutability": "payable",
      "type": "function",
      "payable": true
    },
    {
      "inputs": [],
      "name": "getNumberOfPatients",
      "outputs": [
        {
          "internalType": "uint256",
          "name": "",
          "type": "uint256"
        }
      ],
      "stateMutability": "view",
      "type": "function",
      "constant": true
    },
    {
      "inputs": [
        {
          "internalType": "string",
          "name": "_name",
          "type": "string"
        }
      ],
      "name": "getPatientAddressByName",
      "outputs": [
        {
          "internalType": "address",
          "name": "",
          "type": "address"
        }
      ],
      "stateMutability": "view",
      "type": "function",
      "constant": true
    },
    {
      "inputs": [
        {
          "internalType": "address",
          "name": "_user",
          "type": "address"
        },
        {
          "internalType": "enum records.Role",
          "name": "_role",
          "type": "uint8"
        }
      ],
      "name": "assignRole",
      "outputs": [],
      "stateMutability": "nonpayable",
      "type": "function"
    },
    {
      "inputs": [],
      "name": "getStorageSize",
      "outputs": [],
      "stateMutability": "nonpayable",
      "type": "function"
    }
  ],
  "bytecode": "0x608060405234801561001057600080fd5b50611cb3806100206000396000f3fe60806040526004361061009c5760003560e01c806374d5e1001161006457806374d5e1001461019957806377c36a70146101d6578063a5b7d98414610201578063babb1d411461021d578063d54e4c181461025a578063e79a7a2e146102715761009c565b8063041fe95c146100a15780630869cfbc146100ca57806327af2f5b146101085780632ff1ab9514610145578063630a195b14610170575b600080fd5b3480156100ad57600080fd5b506100c860048036038101906100c391906110e7565b6102a4565b005b3480156100d657600080fd5b506100f160048036038101906100ec91906111ec565b610515565b6040516100ff9291906112ba565b60405180910390f35b34801561011457600080fd5b5061012f600480360381019061012a91906112ea565b6105c1565b60405161013c9190611342565b60405180910390f35b34801561015157600080fd5b5061015a6106dd565b604051610167919061135d565b60405180910390f35b34801561017c57600080fd5b506101976004803603810190610192919061139d565b6106e3565b005b3480156101a557600080fd5b506101c060048036038101906101bb91906111ec565b61074d565b6040516101cd9190611454565b60405180910390f35b3480156101e257600080fd5b506101eb61076d565b6040516101f8919061135d565b60405180910390f35b61021b6004803603810190610216919061149b565b61077a565b005b34801561022957600080fd5b50610244600480360381019061023f91906114f7565b6109da565b6040516102519190611342565b60405180910390f35b34801561026657600080fd5b5061026f610a19565b005b61028b600480360381019061028691906112ea565b610a9d565b60405161029b9493929190611630565b60405180910390f35b6001808111156102b7576102b66113dd565b5b6000803373ffffffffffffffffffffffffffffffffffffffff1673ffffffffffffffffffffffffffffffffffffffff16815260200190815260200160002060009054906101000a900460ff166001811115610315576103146113dd565b5b14610355576040517f08c379a000000000000000000000000000000000000000000000000000000000815260040161034c906116fc565b60405180910390fd5b60005a90506000610365856105c1565b9050600360008273ffffffffffffffffffffffffffffffffffffffff1673ffffffffffffffffffffffffffffffffffffffff168152602001908152602001600020600101849080600181540180825580915050600190039060005260206000200160009091909190915090805190602001906103e2929190610e26565b50600360008273ffffffffffffffffffffffffffffffffffffffff1673ffffffffffffffffffffffffffffffffffffffff1681526020019081526020016000206002018390806001815401808255809150506001900390600052602060002001600090919091909150908051906020019061045e929190610e26565b503373ffffffffffffffffffffffffffffffffffffffff168173ffffffffffffffffffffffffffffffffffffffff167fc0f3c0545e6c681e252a93c176f697ad6450f54e7d97e2bde0850481e98bb5e7426040516104bc919061135d565b60405180910390a360005a836104d2919061174b565b90507fd8e1068095fae444157c607b1fd26fd5b189a81d381d21f562d4ee5e438d8ecb81426040516105059291906117cb565b60405180910390a1505050505050565b600360205280600052604060002060009150905080600001805461053890611836565b80601f016020809104026020016040519081016040528092919081815260200182805461056490611836565b80156105b15780601f10610586576101008083540402835291602001916105b1565b820191906000526020600020905b81548152906001019060200180831161059457829003601f168201915b5050505050908060030154905082565b600080600090505b60028054905081101561069c576000600282815481106105ec576105eb611868565b5b9060005260206000200160009054906101000a900473ffffffffffffffffffffffffffffffffffffffff1690508380519060200120600360008373ffffffffffffffffffffffffffffffffffffffff1673ffffffffffffffffffffffffffffffffffffffff1681526020019081526020016000206000016040516106709190611936565b604051809103902014156106885780925050506106d8565b5080806106949061194d565b9150506105c9565b506040517f08c379a00000000000000000000000000000000000000000000000000000000081526004016106cf906119e2565b60405180910390fd5b919050565b60015481565b806000808473ffffffffffffffffffffffffffffffffffffffff1673ffffffffffffffffffffffffffffffffffffffff16815260200190815260200160002060006101000a81548160ff02191690836001811115610744576107436113dd565b5b02179055505050565b60006020528060005260406000206000915054906101000a900460ff1681565b6000600280549050905090565b60005a9050600034116107c2576040517f08c379a00000000000000000000000000000000000000000000000000000000081526004016107b990611a74565b60405180910390fd5b60003390506040518060800160405280858152602001600067ffffffffffffffff8111156107f3576107f2610fbc565b5b60405190808252806020026020018201604052801561082657816020015b60608152602001906001900390816108115790505b508152602001600067ffffffffffffffff81111561084757610846610fbc565b5b60405190808252806020026020018201604052801561087a57816020015b60608152602001906001900390816108655790505b50815260200184815250600360008373ffffffffffffffffffffffffffffffffffffffff1673ffffffffffffffffffffffffffffffffffffffff16815260200190815260200160002060008201518160000190805190602001906108df929190610e26565b5060208201518160010190805190602001906108fc929190610eac565b506040820151816002019080519060200190610919929190610eac565b50606082015181600301559050506002819080600181540180825580915050600190039060005260206000200160009091909190916101000a81548173ffffffffffffffffffffffffffffffffffffffff021916908373ffffffffffffffffffffffffffffffffffffffff16021790555060005a83610998919061174b565b90507fd8e1068095fae444157c607b1fd26fd5b189a81d381d21f562d4ee5e438d8ecb81426040516109cb929190611ae0565b60405180910390a15050505050565b600281815481106109ea57600080fd5b906000526020600020016000915054906101000a900473ffffffffffffffffffffffffffffffffffffffff1681565b600060208060028080549050610a2f9190611b1c565b610a399190611b1c565b610a439190611b1c565b6020600280549050610a559190611b1c565b610a5f9190611b76565b90507f51df8e556b0c725b4e6c09b3c4709e5d598a9b9c52cbc56ee42c83ceaa8d84d48142604051610a92929190611bcc565b60405180910390a150565b60608060606000805a90506000610ab3876105c1565b90503373ffffffffffffffffffffffffffffffffffffffff168173ffffffffffffffffffffffffffffffffffffffff167f45a02414e09de79aeb750b9b03008fcae9847e2df2cc2ca866ad4936d80e8d3642604051610b12919061135d565b60405180910390a36000600360008373ffffffffffffffffffffffffffffffffffffffff1673ffffffffffffffffffffffffffffffffffffffff168152602001908152602001600020604051806080016040529081600082018054610b7690611836565b80601f0160208091040260200160405190810160405280929190818152602001828054610ba290611836565b8015610bef5780601f10610bc457610100808354040283529160200191610bef565b820191906000526020600020905b815481529060010190602001808311610bd257829003601f168201915b5050505050815260200160018201805480602002602001604051908101604052809291908181526020016000905b82821015610cc9578382906000526020600020018054610c3c90611836565b80601f0160208091040260200160405190810160405280929190818152602001828054610c6890611836565b8015610cb55780601f10610c8a57610100808354040283529160200191610cb5565b820191906000526020600020905b815481529060010190602001808311610c9857829003601f168201915b505050505081526020019060010190610c1d565b50505050815260200160028201805480602002602001604051908101604052809291908181526020016000905b82821015610da2578382906000526020600020018054610d1590611836565b80601f0160208091040260200160405190810160405280929190818152602001828054610d4190611836565b8015610d8e5780601f10610d6357610100808354040283529160200191610d8e565b820191906000526020600020905b815481529060010190602001808311610d7157829003601f168201915b505050505081526020019060010190610cf6565b505050508152602001600382015481525050905060005a84610dc4919061174b565b90507fd8e1068095fae444157c607b1fd26fd5b189a81d381d21f562d4ee5e438d8ecb8142604051610df7929190611c41565b60405180910390a181600001518260200151836040015184606001519750975097509750505050509193509193565b828054610e3290611836565b90600052602060002090601f016020900481019282610e545760008555610e9b565b82601f10610e6d57805160ff1916838001178555610e9b565b82800160010185558215610e9b579182015b82811115610e9a578251825591602001919060010190610e7f565b5b509050610ea89190610f0c565b5090565b828054828255906000526020600020908101928215610efb579160200282015b82811115610efa578251829080519060200190610eea929190610e26565b5091602001919060010190610ecc565b5b509050610f089190610f29565b5090565b5b80821115610f25576000816000905550600101610f0d565b5090565b5b80821115610f495760008181610f409190610f4d565b50600101610f2a565b5090565b508054610f5990611836565b6000825580601f10610f6b5750610f8a565b601f016020900490600052602060002090810190610f899190610f0c565b5b50565b6000604051905090565b600080fd5b600080fd5b600080fd5b600080fd5b6000601f19601f8301169050919050565b7f4e487b7100000000000000000000000000000000000000000000000000000000600052604160045260246000fd5b610ff482610fab565b810181811067ffffffffffffffff8211171561101357611012610fbc565b5b80604052505050565b6000611026610f8d565b90506110328282610feb565b919050565b600067ffffffffffffffff82111561105257611051610fbc565b5b61105b82610fab565b9050602081019050919050565b82818337600083830152505050565b600061108a61108584611037565b61101c565b9050828152602081018484840111156110a6576110a5610fa6565b5b6110b1848285611068565b509392505050565b600082601f8301126110ce576110cd610fa1565b5b81356110de848260208601611077565b91505092915050565b600080600060608486031215611100576110ff610f97565b5b600084013567ffffffffffffffff81111561111e5761111d610f9c565b5b61112a868287016110b9565b935050602084013567ffffffffffffffff81111561114b5761114a610f9c565b5b611157868287016110b9565b925050604084013567ffffffffffffffff81111561117857611177610f9c565b5b611184868287016110b9565b9150509250925092565b600073ffffffffffffffffffffffffffffffffffffffff82169050919050565b60006111b98261118e565b9050919050565b6111c9816111ae565b81146111d457600080fd5b50565b6000813590506111e6816111c0565b92915050565b60006020828403121561120257611201610f97565b5b6000611210848285016111d7565b91505092915050565b600081519050919050565b600082825260208201905092915050565b60005b83811015611253578082015181840152602081019050611238565b83811115611262576000848401525b50505050565b600061127382611219565b61127d8185611224565b935061128d818560208601611235565b61129681610fab565b840191505092915050565b6000819050919050565b6112b4816112a1565b82525050565b600060408201905081810360008301526112d48185611268565b90506112e360208301846112ab565b9392505050565b600060208284031215611300576112ff610f97565b5b600082013567ffffffffffffffff81111561131e5761131d610f9c565b5b61132a848285016110b9565b91505092915050565b61133c816111ae565b82525050565b60006020820190506113576000830184611333565b92915050565b600060208201905061137260008301846112ab565b92915050565b6002811061138557600080fd5b50565b60008135905061139781611378565b92915050565b600080604083850312156113b4576113b3610f97565b5b60006113c2858286016111d7565b92505060206113d385828601611388565b9150509250929050565b7f4e487b7100000000000000000000000000000000000000000000000000000000600052602160045260246000fd5b6002811061141d5761141c6113dd565b5b50565b600081905061142e8261140c565b919050565b600061143e82611420565b9050919050565b61144e81611433565b82525050565b60006020820190506114696000830184611445565b92915050565b611478816112a1565b811461148357600080fd5b50565b6000813590506114958161146f565b92915050565b600080604083850312156114b2576114b1610f97565b5b600083013567ffffffffffffffff8111156114d0576114cf610f9c565b5b6114dc858286016110b9565b92505060206114ed85828601611486565b9150509250929050565b60006020828403121561150d5761150c610f97565b5b600061151b84828501611486565b91505092915050565b600081519050919050565b600082825260208201905092915050565b6000819050602082019050919050565b600082825260208201905092915050565b600061156c82611219565b6115768185611550565b9350611586818560208601611235565b61158f81610fab565b840191505092915050565b60006115a68383611561565b905092915050565b6000602082019050919050565b60006115c682611524565b6115d0818561152f565b9350836020820285016115e285611540565b8060005b8581101561161e57848403895281516115ff858261159a565b945061160a836115ae565b925060208a019950506001810190506115e6565b50829750879550505050505092915050565b6000608082019050818103600083015261164a8187611268565b9050818103602083015261165e81866115bb565b9050818103604083015261167281856115bb565b905061168160608301846112ab565b95945050505050565b7f4f6e6c79206865616c7468636172652070726f7669646572732063616e20616360008201527f6365737320746869732066756e6374696f6e0000000000000000000000000000602082015250565b60006116e6603283611224565b91506116f18261168a565b604082019050919050565b60006020820190508181036000830152611715816116d9565b9050919050565b7f4e487b7100000000000000000000000000000000000000000000000000000000600052601160045260246000fd5b6000611756826112a1565b9150611761836112a1565b9250828210156117745761177361171c565b5b828203905092915050565b7f6164644e657754726561746d656e740000000000000000000000000000000000600082015250565b60006117b5600f83611224565b91506117c08261177f565b602082019050919050565b600060608201905081810360008301526117e4816117a8565b90506117f360208301856112ab565b61180060408301846112ab565b9392505050565b7f4e487b7100000000000000000000000000000000000000000000000000000000600052602260045260246000fd5b6000600282049050600182168061184e57607f821691505b6020821081141561186257611861611807565b5b50919050565b7f4e487b7100000000000000000000000000000000000000000000000000000000600052603260045260246000fd5b600081905092915050565b60008190508160005260206000209050919050565b600081546118c481611836565b6118ce8186611897565b945060018216600081146118e957600181146118fa5761192d565b60ff1983168652818601935061192d565b611903856118a2565b60005b8381101561192557815481890152600182019150602081019050611906565b838801955050505b50505092915050565b600061194282846118b7565b915081905092915050565b6000611958826112a1565b91507fffffffffffffffffffffffffffffffffffffffffffffffffffffffffffffffff82141561198b5761198a61171c565b5b600182019050919050565b7f50617469656e74206e6f7420666f756e64000000000000000000000000000000600082015250565b60006119cc601183611224565b91506119d782611996565b602082019050919050565b600060208201905081810360008301526119fb816119bf565b9050919050565b7f4574686572207061796d656e7420697320726571756972656420746f2061646460008201527f2061206e65772070617469656e74000000000000000000000000000000000000602082015250565b6000611a5e602e83611224565b9150611a6982611a02565b604082019050919050565b60006020820190508181036000830152611a8d81611a51565b9050919050565b7f61646450617469656e7400000000000000000000000000000000000000000000600082015250565b6000611aca600a83611224565b9150611ad582611a94565b602082019050919050565b60006060820190508181036000830152611af981611abd565b9050611b0860208301856112ab565b611b1560408301846112ab565b9392505050565b6000611b27826112a1565b9150611b32836112a1565b9250817fffffffffffffffffffffffffffffffffffffffffffffffffffffffffffffffff0483118215151615611b6b57611b6a61171c565b5b828202905092915050565b6000611b81826112a1565b9150611b8c836112a1565b9250827fffffffffffffffffffffffffffffffffffffffffffffffffffffffffffffffff03821115611bc157611bc061171c565b5b828201905092915050565b6000604082019050611be160008301856112ab565b611bee60208301846112ab565b9392505050565b7f67657450617469656e7400000000000000000000000000000000000000000000600082015250565b6000611c2b600a83611224565b9150611c3682611bf5565b602082019050919050565b60006060820190508181036000830152611c5a81611c1e565b9050611c6960208301856112ab565b611c7660408301846112ab565b939250505056fea2646970667358221220151697f9fa666c4d9930b38604926f5b3ebfb8ac8332c38ef687288b855b3f4b64736f6c634300080b0033",
  "immutableReferences": {},
  "source": "// SPDX-License-Identifier: MIT\r\npragma solidity ^0.8.11;\r\n\r\ncontract records {\r\n    \r\n    // Define roles\r\n    enum Role { Patient, HealthcareProvider }\r\n    \r\n    // Mapping of addresses to roles\r\n    mapping(address => Role) public userRoles;\r\n\r\n    // Modifier to restrict access to healthcare providers\r\n    modifier onlyHealthcareProvider() {\r\n        require(userRoles[msg.sender] == Role.HealthcareProvider, \"Only healthcare providers can access this function\");\r\n        _;\r\n    }\r\n\r\n    struct Patient {\r\n        string name;\r\n        string[] treatments; // Array to store multiple treatments\r\n        string[] treatmentDates; // Array to store dates of treatments\r\n        uint age; // Age of the patient\r\n    }\r\n\r\n    uint public creditPool;\r\n\r\n    address[] public patientList;\r\n    mapping(address => Patient) public patients;\r\n\r\n    // Events to log patient data access and modification\r\n    event PatientAccessed(address indexed patientAddr, address indexed user, uint timestamp);\r\n    event PatientModified(address indexed patientAddr, address indexed user, uint timestamp);\r\n\r\n    // Events to log gas usage\r\n    event GasUsed(string operation, uint gasUsed, uint timestamp);\r\n    event StorageUsed(uint storageSize, uint timestamp);\r\n\r\n    // Function to add a new patient (now payable)\r\n    function addPatient(string memory _name, uint _age) public payable {\r\n        uint initialGas = gasleft();\r\n        require(msg.value > 0, \"Ether payment is required to add a new patient\");\r\n        address newPatientAddr = msg.sender; // Assign the sender's address as the patient's address\r\n        patients[newPatientAddr] = Patient({\r\n            name: _name,\r\n            treatments: new string[](0) , // Initialize empty treatments array\r\n            treatmentDates: new string[](0) , // Initialize empty treatmentDates array\r\n            age: _age\r\n        });\r\n        patientList.push(newPatientAddr); // Add the patient's address to the patientList\r\n        uint gasUsed = initialGas - gasleft();\r\n        emit GasUsed(\"addPatient\", gasUsed, block.timestamp);\r\n    }\r\n\r\n    // Function to edit a patient's treatment details\r\n    function addNewTreatment(string memory _patientName, string memory _newTreatment, string memory _newTreatmentDate) public onlyHealthcareProvider {\r\n    uint initialGas = gasleft();\r\n    address patientAddr = getPatientAddressByName(_patientName); // Get patient address by name\r\n    patients[patientAddr].treatments.push(_newTreatment); // Add new treatment to the treatments array\r\n    patients[patientAddr].treatmentDates.push(_newTreatmentDate); // Add date of new treatment to treatmentDates array\r\n    emit PatientModified(patientAddr, msg.sender, block.timestamp);\r\n    uint gasUsed = initialGas - gasleft();\r\n    emit GasUsed(\"addNewTreatment\", gasUsed, block.timestamp);\r\n    }\r\n\r\n    // Function to get patient details by name\r\n    function getPatient(string memory _name) public payable returns (string memory, string[] memory, string[] memory, uint) {\r\n        uint initialGas = gasleft();\r\n        address patientAddr = getPatientAddressByName(_name); // Get patient address by name\r\n        emit PatientAccessed(patientAddr, msg.sender, block.timestamp);\r\n        Patient memory p = patients[patientAddr];\r\n        uint gasUsed = initialGas - gasleft();\r\n        emit GasUsed(\"getPatient\", gasUsed, block.timestamp);\r\n        return (p.name, p.treatments, p.treatmentDates, p.age);\r\n    }\r\n\r\n    // Function to get the number of patients\r\n    function getNumberOfPatients() public view returns (uint) {\r\n        return patientList.length;\r\n    }\r\n\r\n    // Function to get patient address by name\r\n    function getPatientAddressByName(string memory _name) public view returns (address) {\r\n        for (uint i = 0; i < patientList.length; i++) {\r\n            address patientAddr = patientList[i];\r\n            if (keccak256(bytes(patients[patientAddr].name)) == keccak256(bytes(_name))) {\r\n                return patientAddr;\r\n            }\r\n        }\r\n        revert(\"Patient not found\");\r\n    }\r\n\r\n    // Function to assign role to an address (for contract owner only)\r\n    function assignRole(address _user, Role _role) public {\r\n        // Implement access control to restrict this function only to contract owner\r\n        userRoles[_user] = _role;\r\n    }\r\n\r\n    // Function to get storage size of patient list\r\n    function getStorageSize() public {\r\n        uint size = patientList.length * 32 + // Each address takes up 32 bytes\r\n                    patientList.length * 2 * 32 * 32; // Each patient has a struct with 2 string arrays, each string taking up 32 bytes\r\n        emit StorageUsed(size, block.timestamp);\r\n    }\r\n}\r\n",
  "sourcePath": "D:\\BlockChain\\demo\\new ehr\\contracts\\records.sol",
  "compiler": {
    "name": "solc",
    "version": "0.8.11+commit.d7f03943.Emscripten.clang"
  },
  "schemaVersion": "3.4.16",
  "updatedAt": "2024-05-27T21:40:06.344Z",
  "networkType": "ethereum",
  "devdoc": {
    "kind": "dev",
    "methods": {},
    "version": 1
  },
  "userdoc": {
    "kind": "user",
    "methods": {},
    "version": 1
  }
}